{
  "contractName": "doublesig",
  "abi": [
    {
      "inputs": [],
      "stateMutability": "nonpayable",
      "type": "constructor"
    },
    {
      "anonymous": false,
      "inputs": [
        {
          "indexed": false,
          "internalType": "address",
          "name": "to",
          "type": "address"
        },
        {
          "indexed": false,
          "internalType": "uint256",
          "name": "amount",
          "type": "uint256"
        }
      ],
      "name": "PaymentInitiation",
      "type": "event"
    },
    {
      "anonymous": false,
      "inputs": [
        {
          "indexed": false,
          "internalType": "uint256",
          "name": "amount",
          "type": "uint256"
        }
      ],
      "name": "contractDeposit",
      "type": "event"
    },
    {
      "inputs": [],
      "name": "admin",
      "outputs": [
        {
          "internalType": "address",
          "name": "",
          "type": "address"
        }
      ],
      "stateMutability": "view",
      "type": "function"
    },
    {
      "inputs": [
        {
          "internalType": "address",
          "name": "",
          "type": "address"
        }
      ],
      "name": "approved",
      "outputs": [
        {
          "internalType": "bool",
          "name": "",
          "type": "bool"
        }
      ],
      "stateMutability": "view",
      "type": "function"
    },
    {
      "inputs": [],
      "name": "approver",
      "outputs": [
        {
          "internalType": "address",
          "name": "",
          "type": "address"
        }
      ],
      "stateMutability": "view",
      "type": "function"
    },
    {
      "inputs": [
        {
          "internalType": "uint256",
          "name": "",
          "type": "uint256"
        }
      ],
      "name": "proposals",
      "outputs": [
        {
          "internalType": "address payable",
          "name": "to",
          "type": "address"
        },
        {
          "internalType": "uint256",
          "name": "amount",
          "type": "uint256"
        },
        {
          "internalType": "bool",
          "name": "approved",
          "type": "bool"
        }
      ],
      "stateMutability": "view",
      "type": "function"
    },
    {
      "inputs": [
        {
          "internalType": "address",
          "name": "_approver",
          "type": "address"
        }
      ],
      "name": "changeApprover",
      "outputs": [],
      "stateMutability": "nonpayable",
      "type": "function"
    },
    {
      "inputs": [
        {
          "internalType": "uint256",
          "name": "id",
          "type": "uint256"
        }
      ],
      "name": "attemptTransfer",
      "outputs": [],
      "stateMutability": "nonpayable",
      "type": "function"
    },
    {
      "inputs": [],
      "name": "deposit",
      "outputs": [
        {
          "internalType": "bool",
          "name": "",
          "type": "bool"
        }
      ],
      "stateMutability": "payable",
      "type": "function"
    },
    {
      "inputs": [
        {
          "internalType": "address payable",
          "name": "_to",
          "type": "address"
        },
        {
          "internalType": "uint256",
          "name": "_amount",
          "type": "uint256"
        }
      ],
      "name": "createProposal",
      "outputs": [],
      "stateMutability": "nonpayable",
      "type": "function"
    },
    {
      "inputs": [
        {
          "internalType": "uint256",
          "name": "id",
          "type": "uint256"
        }
      ],
      "name": "approveTransaction",
      "outputs": [],
      "stateMutability": "nonpayable",
      "type": "function"
    },
    {
      "inputs": [
        {
          "internalType": "uint256",
          "name": "id",
          "type": "uint256"
        }
      ],
      "name": "rejectTransaction",
      "outputs": [],
      "stateMutability": "nonpayable",
      "type": "function"
    },
    {
      "inputs": [],
      "name": "getBalance",
      "outputs": [
        {
          "internalType": "uint256",
          "name": "",
          "type": "uint256"
        }
      ],
      "stateMutability": "view",
      "type": "function"
    }
  ],
  "bytecode": "0x6080604052600060045534801561001557600080fd5b5033600260006101000a81548173ffffffffffffffffffffffffffffffffffffffff021916908373ffffffffffffffffffffffffffffffffffffffff160217905550610e0e806100666000396000f3fe60806040526004361061009c5760003560e01c8063c6c599c111610064578063c6c599c1146101f8578063d0e30db014610249578063d8b964e614610269578063dfc51a25146102d0578063e0cde31e1461032b578063f851a440146103665761009c565b8063013cf08b146100a157806305bf37aa1461011657806312065fe014610151578063141a8dd81461017c578063242232d1146101bd575b600080fd5b3480156100ad57600080fd5b506100da600480360360208110156100c457600080fd5b81019080803590602001909291905050506103a7565b604051808473ffffffffffffffffffffffffffffffffffffffff1681526020018381526020018215158152602001935050505060405180910390f35b34801561012257600080fd5b5061014f6004803603602081101561013957600080fd5b81019080803590602001909291905050506103fe565b005b34801561015d57600080fd5b5061016661052d565b6040518082815260200191505060405180910390f35b34801561018857600080fd5b50610191610535565b604051808273ffffffffffffffffffffffffffffffffffffffff16815260200191505060405180910390f35b3480156101c957600080fd5b506101f6600480360360208110156101e057600080fd5b810190808035906020019092919050505061055b565b005b34801561020457600080fd5b506102476004803603602081101561021b57600080fd5b81019080803573ffffffffffffffffffffffffffffffffffffffff16906020019092919050505061068a565b005b6102516107cc565b60405180821515815260200191505060405180910390f35b34801561027557600080fd5b506102b86004803603602081101561028c57600080fd5b81019080803573ffffffffffffffffffffffffffffffffffffffff16906020019092919050505061080c565b60405180821515815260200191505060405180910390f35b3480156102dc57600080fd5b50610329600480360360408110156102f357600080fd5b81019080803573ffffffffffffffffffffffffffffffffffffffff1690602001909291908035906020019092919050505061082c565b005b34801561033757600080fd5b506103646004803603602081101561034e57600080fd5b8101908080359060200190929190505050610ab5565b005b34801561037257600080fd5b5061037b610c40565b604051808273ffffffffffffffffffffffffffffffffffffffff16815260200191505060405180910390f35b60006020528060005260406000206000915090508060000160009054906101000a900473ffffffffffffffffffffffffffffffffffffffff16908060010154908060020160009054906101000a900460ff16905083565b3373ffffffffffffffffffffffffffffffffffffffff16600160009054906101000a900473ffffffffffffffffffffffffffffffffffffffff1673ffffffffffffffffffffffffffffffffffffffff1614806104a757503373ffffffffffffffffffffffffffffffffffffffff16600260009054906101000a900473ffffffffffffffffffffffffffffffffffffffff1673ffffffffffffffffffffffffffffffffffffffff16145b6104fc576040517f08c379a0000000000000000000000000000000000000000000000000000000008152600401808060200182810382526022815260200180610db76022913960400191505060405180910390fd5b600080600083815260200190815260200160002060020160006101000a81548160ff02191690831515021790555050565b600047905090565b600160009054906101000a900473ffffffffffffffffffffffffffffffffffffffff1681565b3373ffffffffffffffffffffffffffffffffffffffff16600160009054906101000a900473ffffffffffffffffffffffffffffffffffffffff1673ffffffffffffffffffffffffffffffffffffffff16148061060457503373ffffffffffffffffffffffffffffffffffffffff16600260009054906101000a900473ffffffffffffffffffffffffffffffffffffffff1673ffffffffffffffffffffffffffffffffffffffff16145b610659576040517f08c379a0000000000000000000000000000000000000000000000000000000008152600401808060200182810382526022815260200180610db76022913960400191505060405180910390fd5b600160008083815260200190815260200160002060020160006101000a81548160ff02191690831515021790555050565b3373ffffffffffffffffffffffffffffffffffffffff16600160009054906101000a900473ffffffffffffffffffffffffffffffffffffffff1673ffffffffffffffffffffffffffffffffffffffff16148061073357503373ffffffffffffffffffffffffffffffffffffffff16600260009054906101000a900473ffffffffffffffffffffffffffffffffffffffff1673ffffffffffffffffffffffffffffffffffffffff16145b610788576040517f08c379a0000000000000000000000000000000000000000000000000000000008152600401808060200182810382526022815260200180610db76022913960400191505060405180910390fd5b80600160006101000a81548173ffffffffffffffffffffffffffffffffffffffff021916908373ffffffffffffffffffffffffffffffffffffffff16021790555050565b60007f60a44ec1e34e2d6bd511ca26c0918fe4ca6cd0e8ade53c85ef9048b355cc4199346040518082815260200191505060405180910390a16001905090565b60036020528060005260406000206000915054906101000a900460ff1681565b3373ffffffffffffffffffffffffffffffffffffffff16600160009054906101000a900473ffffffffffffffffffffffffffffffffffffffff1673ffffffffffffffffffffffffffffffffffffffff1614806108d557503373ffffffffffffffffffffffffffffffffffffffff16600260009054906101000a900473ffffffffffffffffffffffffffffffffffffffff1673ffffffffffffffffffffffffffffffffffffffff16145b61092a576040517f08c379a0000000000000000000000000000000000000000000000000000000008152600401808060200182810382526022815260200180610db76022913960400191505060405180910390fd5b804711610982576040517f08c379a0000000000000000000000000000000000000000000000000000000008152600401808060200182810382526036815260200180610d816036913960400191505060405180910390fd5b61098a610d47565b60405180606001604052808473ffffffffffffffffffffffffffffffffffffffff16815260200183815260200160001515815250905080600080600454815260200190815260200160002060008201518160000160006101000a81548173ffffffffffffffffffffffffffffffffffffffff021916908373ffffffffffffffffffffffffffffffffffffffff1602179055506020820151816001015560408201518160020160006101000a81548160ff0219169083151502179055509050506004600081548092919060010191905055507f159186e22c7f1f2f81c5806d7e145f76375c0881822b9492cc539c49100cb07d8383604051808373ffffffffffffffffffffffffffffffffffffffff1681526020018281526020019250505060405180910390a1505050565b3373ffffffffffffffffffffffffffffffffffffffff16600160009054906101000a900473ffffffffffffffffffffffffffffffffffffffff1673ffffffffffffffffffffffffffffffffffffffff161480610b5e57503373ffffffffffffffffffffffffffffffffffffffff16600260009054906101000a900473ffffffffffffffffffffffffffffffffffffffff1673ffffffffffffffffffffffffffffffffffffffff16145b610bb3576040517f08c379a0000000000000000000000000000000000000000000000000000000008152600401808060200182810382526022815260200180610db76022913960400191505060405180910390fd5b600160008083815260200190815260200160002060020160006101000a81548160ff0219169083151502179055610be957600080fd5b610c3d60008083815260200190815260200160002060000160009054906101000a900473ffffffffffffffffffffffffffffffffffffffff1660008084815260200190815260200160002060010154610c66565b50565b600260009054906101000a900473ffffffffffffffffffffffffffffffffffffffff1681565b60008273ffffffffffffffffffffffffffffffffffffffff168260405180600001905060006040518083038185875af1925050503d8060008114610cc6576040519150601f19603f3d011682016040523d82523d6000602084013e610ccb565b606091505b5050905080610d42576040517f08c379a00000000000000000000000000000000000000000000000000000000081526004018080602001828103825260148152602001807f4661696c656420746f2073656e6420457468657200000000000000000000000081525060200191505060405180910390fd5b505050565b6040518060600160405280600073ffffffffffffffffffffffffffffffffffffffff16815260200160008152602001600015158152509056fe43616e6e6f742070726f706f736520616e20616d6f756e742067726561746572207468616e20636f6e74726163742062616c616e63656f6e6c7920617070726f7665642075736572732063616e2063616c6c20746869732ea26469706673582212205be9f022f2210e948bee19c650fe5ae78d098bbaa41e81efb3e8b1543bf791f564736f6c63430007030033",
  "immutableReferences": {},
  "source": "pragma solidity ^0.7.3;\n\n/**\n@dev Allows 2 approved addresses to send ETH from this account\n*/\ncontract doublesig{\n  event PaymentInitiation(address to, uint amount);\n  event contractDeposit(uint amount);\n  \n  \n  struct proposal {\n    address payable to;\n    uint amount;\n    bool approved;\n  }\n\n  mapping(uint => proposal) public proposals;\n    \n  address public approver;\n  address public admin;\n\n  mapping(address => bool) public approved;\n\n  uint counter = 0;\n\n  constructor(){\n    admin = msg.sender;\n  }\n\n  modifier onlyApproved(){\n    require(\n      approver==msg.sender || admin ==msg.sender,\n      \"only approved users can call this.\"  \n    );\n    _;\n  }\n\n\n  function changeApprover(address _approver) public onlyApproved(){\n    approver = _approver;\n  }\n\n\n  \n  function attemptTransfer(uint id) public onlyApproved(){\n    require(proposals[id].approved = true);\n    _transfer(proposals[id].to, proposals[id].amount);\n  }\n\n  function deposit() payable public returns (bool) {\n    emit contractDeposit(msg.value);\n    return true;\n  }\n\n  function createProposal(address payable _to, uint _amount) public onlyApproved(){\n    require(address(this).balance>_amount, \"Cannot propose an amount greater than contract balance\");\n    // add a new proposal to proposals array\n    // proposals.push(newProposal);   \n\n        // By default the proposer has to approve this proposal\n    proposal memory newProposal = proposal(_to, _amount, false);\n    proposals[counter] = newProposal;\n    counter++;\n    emit PaymentInitiation(_to, _amount);\n  }\n\n  function _transfer(address payable _to, uint _amount) internal{\n    (bool success,) = _to.call{value: _amount}(\"\");\n    require(success, \"Failed to send Ether\");\n  }\n\n  function approveTransaction(uint id) public onlyApproved(){\n    proposals[id].approved=true;\n  }\n\n  function rejectTransaction(uint id) public onlyApproved(){\n    proposals[id].approved=false;\n  }\n\n/**\n * @dev returns the balance of this smart contract\n **/\n  function getBalance() external view returns (uint){\n    return address(this).balance;\n  }\n\n}\n",
  "sourcePath": "/home/mv/Documents/code/multisig/contracts/doublesig.sol",
  "compiler": {
    "name": "solc",
    "version": "0.7.3+commit.9bfce1f6.Emscripten.clang"
  },
  "schemaVersion": "3.3.4",
  "updatedAt": "2021-05-11T18:18:28.665Z",
  "devdoc": {
    "details": "Allows 2 approved addresses to send ETH from this account",
    "kind": "dev",
    "methods": {
      "getBalance()": {
        "details": "returns the balance of this smart contract*"
      }
    },
    "version": 1
  },
  "userdoc": {
    "kind": "user",
    "methods": {},
    "version": 1
  }
}